:100000000C942A000C9494070C94E4070C94340884
:100010000C9447000C9447000C9447000C94470044
:100020000C9447000C9447000C9447000C94470034
:100030000C9447000C9447000C9447000C94470024
:100040000C94770C0C9447000C9447000C944700D8
:100050000C94470011241FBECFE5D8E0DEBFCDBF12
:1000600011E0A0E6B0E0E4E4F0E302C005900D92F8
:10007000A232B107D9F711E0A2E2B1E001C01D92AE
:10008000A433B107E1F70E94A3140C9420180C9438
:100090000000EF92FF920F931F937B018C0120E0F1
:1000A00030E040E05FE40E94490388238CF0C801FF
:1000B000B70120E030E040E05FE40E94C1010E940F
:1000C000A9039B01AC01205030404040504806C07D
:1000D000C801B7010E94A9039B01AC01B901CA0183
:1000E0001F910F91FF90EF900895A0E0B0E0EBE733
:1000F000F0E00C94E917DC012B01FA019C9192309D
:1001000008F439C1EB018881823008F433C194309E
:1001100069F4843009F02FC111969C91119789815F
:10012000981709F428C1A7EFB0E025C1843009F47D
:1001300021C18230A9F4923009F01DC19A01AD01AC
:1001400088E0EA010990AE01E90109929E0181501F
:10015000C1F7E201898111969C918923818308C1AD
:10016000923009F407C112962D903C901397EB0141
:100170008A819B811496AD90BD90CD90DC901797AD
:10018000EC80FD800E811F819101281B390BB90184
:1001900037FF04C066277727621B730B6032710537
:1001A0000CF061C0121613066CF537014801062EDB
:1001B00004C096948794779467940A94D2F721E0C8
:1001C00030E040E050E004C0220F331F441F551FB1
:1001D0006A95D2F721503040404050402E213F21B7
:1001E00040235123211531054105510521F021E01E
:1001F00030E040E050E079018A01E628F72808293C
:1002000019293CC0232BD1F1260E371E350146019A
:10021000062E04C096948794779467940A94D2F734
:1002200021E030E040E050E004C0220F331F441FC3
:10023000551F6A95D2F721503040404050402A2146
:100240003B214C215D21211531054105510521F04E
:1002500021E030E040E050E059016A01A628B728CB
:10026000C828D9280BC0821593052CF01C01AA249C
:10027000BB24650103C0EE24FF24870111969C91E5
:10028000D20111968C91981709F445C0992339F041
:10029000A80197012A193B094C095D0906C0A6016E
:1002A00095012E193F09400B510B57FD08C01182D3
:1002B0003382228224833583468357831DC081E0A5
:1002C00081833382228288279927DC01821B930B4A
:1002D000A40BB50B84839583A683B7830DC0220F2F
:1002E000331F441F551F24833583468357838281E0
:1002F000938101979383828324813581468157813D
:10030000DA01C9010197A109B1098F5F9F4FAF4F72
:10031000BF4328F30BC0918333822282EA0CFB1C7B
:100320000C1D1D1DE482F5820683178383E0808304
:10033000248135814681578157FF1AC0C901AA27F8
:1003400097FDA095BA2F81709070A070B0705695EF
:10035000479537952795822B932BA42BB52B848318
:100360009583A683B7838281938101969383828349
:10037000DF0101C0D201CD01CDB7DEB7E2E10C94BF
:100380000518A0E2B0E0E7ECF1E00C94F517698302
:100390007A838B839C832D833E834F835887E9E048
:1003A000EE2EF12CEC0EFD1ECE010196B7010E943F
:1003B000D2048E010F5E1F4FCE010596B8010E9438
:1003C000D2048A8991E089278A8BC701B801AE01DE
:1003D000475E5F4F0E9475000E94FD03A096E6E015
:1003E0000C941118A0E2B0E0E8EFF1E00C94F517DE
:1003F00069837A838B839C832D833E834F835887C5
:10040000F9E0EF2EF12CEC0EFD1ECE010196B701A6
:100410000E94D2048E010F5E1F4FCE010596B801D7
:100420000E94D204C701B801AE01475E5F4F0E942F
:1004300075000E94FD03A096E6E00C941118A0E25E
:10044000B0E0E5E2F2E00C94E91769837A838B83EC
:100450009C832D833E834F835887CE010196BE0136
:10046000675F7F4F0E94D204CE010596BE016F5E8A
:100470007F4F0E94D2049985923088F0898982301A
:10048000C8F0943019F4823051F404C0843029F457
:10049000923081F487EF90E0C6C0923049F420E0BA
:1004A0009A858A89981321E02A87CE010996BBC0D4
:1004B000823049F420E09A858A89981321E02A8BBA
:1004C000CE014196B0C02D843E844F8458886D88FB
:1004D0007E888F88988CEE24FF248701AA24BB2471
:1004E000650140E050E060E070E0E0E0F0E0C10174
:1004F00081709070892BE9F0E60CF71C081D191D1E
:100500009A01AB012A0D3B1D4C1D5D1D80E090E062
:10051000A0E0B0E0E614F7040805190520F481E036
:1005200090E0A0E0B0E0BA01A901480F591F6A1F8E
:100530007B1FAA0CBB1CCC1CDD1C97FE08C081E0F5
:1005400090E0A0E0B0E0A82AB92ACA2ADB2A3196B6
:10055000E032F10549F0660C771C881C991C569412
:10056000479437942794C3CFFA85EA892B893C892D
:100570008B859C85280F391F2E5F3F4F17C0CA01FE
:1005800081709070892B61F016950795F794E79428
:1005900080E090E0A0E0B0E8E82AF92A0A2B1B2BC3
:1005A00076956795579547952F5F3F4F77FDE7CF36
:1005B0000CC0440F551F661F771F17FD4160EE0CDE
:1005C000FF1C001F111F21503040403090E05907A0
:1005D00090E0690790E4790760F32B8F3C8FDB0193
:1005E000CA018F779070A070B07080349105A1051A
:1005F000B10561F447FD0AC0E114F10401051105DC
:1006000029F0405C5F4F6F4F7F4F40781A8EFE1786
:1006100011F081E08A8F4D8F5E8F6F8F78A383E01A
:10062000898FCE0149960E94FD03A096E2E10C94C9
:100630000518A8E1B0E0EFE1F3E00C94F517698349
:100640007A838B839C832D833E834F83588789E0F5
:10065000E82EF12CEC0EFD1ECE010196B7010E9492
:10066000D2048E010F5E1F4FCE010596B8010E9485
:10067000D2048985823040F08989823028F0C70110
:10068000B8010E944A0501C08FEF6896E6E00C941D
:100690001118A8E1B0E0EFE4F3E00C94F5176983DA
:1006A0007A838B839C832D833E834F83588789E095
:1006B000E82EF12CEC0EFD1ECE010196B7010E9432
:1006C000D2048E010F5E1F4FCE010596B8010E9425
:1006D000D2048985823040F08989823028F0C701B0
:1006E000B8010E944A0501C08FEF6896E6E00C94BD
:1006F0001118A8E1B0E0EFE7F3E00C94F517698377
:100700007A838B839C832D833E834F83588789E034
:10071000E82EF12CEC0EFD1ECE010196B7010E94D1
:10072000D2048E010F5E1F4FCE010596B8010E94C4
:10073000D2048985823040F08989823028F0C7014F
:10074000B8010E944A0501C081E06896E6E00C9479
:100750001118ACE0B0E0EFEAF3E00C94F91769830C
:100760007A838B839C83CE010196BE016B5F7F4FA2
:100770000E94D2048D81823061F1823050F1843048
:1007800021F48E81882351F12EC02F81388537FDC9
:1007900020C06E812F3131051CF06623F9F023C093
:1007A0008EE190E0821B930B29853A854B855C8511
:1007B00004C056954795379527958A95D2F76623B5
:1007C000B1F050954095309521953F4F4F4F5F4F79
:1007D0000EC020E030E040E050E009C02FEF3FEFD6
:1007E0004FEF5FE704C020E030E040E050E8B9019F
:1007F000CA012C96E2E00C941518DF92EF92FF925A
:100800000F931F93FC01E480F58006811781D1804E
:100810008081823048F480E090E0A0E1B0E0E82AF6
:10082000F92A0A2B1B2BA5C0843009F49FC0823003
:1008300021F4EE24FF24870105C0E114F104010531
:10084000110519F4E0E0F0E096C0628173819FEF3A
:10085000623879070CF05BC022E83FEF261B370BAC
:100860002A3131052CF020E030E040E050E02AC091
:10087000B801A701022E04C0769567955795479554
:100880000A94D2F781E090E0A0E0B0E004C0880FC5
:10089000991FAA1FBB1F2A95D2F70197A109B10979
:1008A0008E219F21A023B1230097A105B10521F03E
:1008B00081E090E0A0E0B0E09A01AB01282B392B59
:1008C0004A2B5B2BDA01C9018F779070A070B07052
:1008D00080349105A105B10539F427FF09C0205CDA
:1008E0003F4F4F4F5F4F04C0215C3F4F4F4F5F4F13
:1008F000E0E0F0E02030A0E03A07A0E04A07A0E402
:100900005A0710F0E1E0F0E079018A0127C0603871
:10091000710564F5FB01E158FF4FD801C7018F77DE
:100920009070A070B07080349105A105B10539F4C4
:10093000E7FE0DC080E490E0A0E0B0E004C08FE3EB
:1009400090E0A0E0B0E0E80EF91E0A1F1B1F17FFA1
:1009500005C016950795F794E794319687E01695AC
:100960000795F794E7948A95D1F705C0EE24FF2404
:100970008701EFEFF0E06E2F679566276795902F60
:100980009F77D794DD24D7948E2F8695492F462BB9
:10099000582F5D29B701CA011F910F91FF90EF9069
:1009A000DF900895FC01DB01408151812281622F9B
:1009B0006F7770E0221F2227221F9381892F880FD3
:1009C000822B282F30E0991F9927991F11969C930D
:1009D000119721153105A9F54115510561057105DD
:1009E00011F482E037C082E89FEF13969C938E93B8
:1009F00012979A01AB0167E0220F331F441F551F66
:100A00006A95D1F783E08C930DC0220F331F441FEA
:100A1000551F12968D919C911397019713969C9355
:100A20008E931297203080E0380780E0480780E4FA
:100A3000580758F314962D933D934D935C93179755
:100A400008952F3F310579F4411551056105710570
:100A500019F484E08C93089564FF03C081E08C93C3
:100A600012C01C9210C02F57304013963C932E9307
:100A7000129783E08C9387E0440F551F661F771F02
:100A80008A95D1F7706414964D935D936D937C9322
:100A9000179708951F93DC01FB019C91923008F495
:100AA00047C08081823008F443C0943051F41196DD
:100AB0001C91843099F58181682F70E0611B710968
:100AC0003FC0843021F0923031F48230B9F181811D
:100AD000882389F12DC011961C9111978230F1F075
:100AE00081811817D9F412962D913C911397828128
:100AF00093818217930794F028173907BCF0149656
:100B00008D919D910D90BC91A02D248135814681C0
:100B10005781281739074A075B0718F4112341F05A
:100B20000AC082179307A407B50740F4112319F0F0
:100B300061E070E005C06FEF7FEF02C060E070E041
:100B4000CB011F910895DF93CF93CDB7DEB7AFE50B
:100B5000B0E0EFE5F0E0808180688C93CF91DF9189
:100B60000895DF93CF93CDB7DEB7AFE5B0E0EFE503
:100B7000F0E080818F778C93CF91DF910895DF93A0
:100B8000CF93CDB7DEB7A5E5B0E0E5E5F0E0808135
:100B900082608C93A5E5B0E0E5E5F0E080818E7F92
:100BA0008C93ABE5B0E0EBE5F0E0808180648C9362
:100BB000CF91DF910895DF93CF93CDB7DEB7A5E551
:100BC000B0E0E5E5F0E0808188608C93A5E5B0E0D9
:100BD000E5E5F0E080818B7F8C93ABE5B0E0EBE561
:100BE000F0E0808180688C93CF91DF910895DF934E
:100BF000CF93CDB7DEB7A4E5B0E0E4E5F0E08081C7
:100C00008F7B8C93ABE5B0E0EBE5F0E08081806218
:100C10008C93CF91DF910895DF93CF9300D000D0D4
:100C2000CDB7DEB78A8319828A81282F30E03C83D2
:100C30002B838B819C818230910599F12B813C81A2
:100C40002330310534F48B819C8181309105C1F1D1
:100C500046C02B813C8123303105A1F08B819C81E2
:100C600084309105E1F5A5E5B0E0E5E5F0E08081AF
:100C700082608C93A5E5B0E0E5E5F0E080818160DD
:100C80008C932FC0A5E5B0E0E5E5F0E080818260BF
:100C90008C93A5E5B0E0E5E5F0E080818E7F8C9354
:100CA00020C0A5E5B0E0E5E5F0E080818D7F8C9384
:100CB000A5E5B0E0E5E5F0E0808181608C9311C0AE
:100CC000A5E5B0E0E5E5F0E080818D7F8C93A5E5BA
:100CD000B0E0E5E5F0E080818E7F8C9302C081E09A
:100CE000898389810F900F900F900F90CF91DF91A2
:100CF0000895DF93CF9300D000D0CDB7DEB78A83BD
:100D000019828A81282F30E03C832B838B819C8140
:100D10008230910599F12B813C812330310534F4E7
:100D20008B819C8181309105C1F146C02B813C8132
:100D300023303105A1F08B819C8184309105E1F550
:100D4000A5E5B0E0E5E5F0E0808188608C93A5E55D
:100D5000B0E0E5E5F0E0808184608C932FC0A5E5EC
:100D6000B0E0E5E5F0E0808188608C93A5E5B0E037
:100D7000E5E5F0E080818B7F8C9320C0A5E5B0E0B5
:100D8000E5E5F0E08081877F8C93A5E5B0E0E5E5BF
:100D9000F0E0808184608C9311C0A5E5B0E0E5E5CA
:100DA000F0E08081877F8C93A5E5B0E0E5E5F0E099
:100DB00080818B7F8C9302C081E0898389810F9031
:100DC0000F900F900F90CF91DF910895DF93CF9305
:100DD00000D000D0CDB7DEB78A8319828A81282F50
:100DE00030E03C832B838B819C818330910569F0BB
:100DF0002B813C812430310581F4A4E5B0E0E4E5A9
:100E0000F0E0808180648C930AC0A4E5B0E0E4E562
:100E1000F0E080818F7B8C9302C081E0898389819F
:100E20000F900F900F900F90CF91DF910895DF9367
:100E3000CF9300D0CDB7DEB78A8319828A81813003
:100E400041F4ABE5B0E0EBE5F0E0808180648C93A9
:100E500018C08A81823041F4ABE5B0E0EBE5F0E008
:100E6000808180688C930DC08A81833041F4ABE52A
:100E7000B0E0EBE5F0E0808180628C9302C081E01D
:100E8000898389810F900F90CF91DF910895DF932F
:100E9000CF9300D0CDB7DEB78A8319828A818130A3
:100EA00041F4ABE5B0E0EBE5F0E080818F7B8C9323
:100EB00018C08A81823041F4ABE5B0E0EBE5F0E0A8
:100EC00080818F778C930DC08A81833041F4ABE5AC
:100ED000B0E0EBE5F0E080818F7D8C9302C081E093
:100EE000898389810F900F90CF91DF910895DF93CF
:100EF000CF9300D00F92CDB7DEB79B838A83198240
:100F00008A819B81009739F08A819B81909323018C
:100F10008093220102C082E0898389810F900F9023
:100F20000F90CF91DF9108951F920F920FB60F92FD
:100F300011242F933F934F935F936F937F938F93DE
:100F40009F93AF93BF93EF93FF93DF93CF93CDB76F
:100F5000DEB78091220190912301009729F0E09162
:100F60002201F09123010995CF91DF91FF91EF913B
:100F7000BF91AF919F918F917F916F915F914F91B1
:100F80003F912F910F900FBE0F901F901895DF93F8
:100F9000CF9300D00F92CDB7DEB79B838A8319829F
:100FA0008A819B81009739F08A819B8190932501EA
:100FB0008093240102C082E0898389810F900F9081
:100FC0000F90CF91DF9108951F920F920FB60F925D
:100FD00011242F933F934F935F936F937F938F933E
:100FE0009F93AF93BF93EF93FF93DF93CF93CDB7CF
:100FF000DEB78091240190912501009729F0E091BE
:101000002401F09125010995CF91DF91FF91EF9196
:10101000BF91AF919F918F917F916F915F914F9110
:101020003F912F910F900FBE0F901F901895DF9357
:10103000CF9300D00F92CDB7DEB79B838A831982FE
:101040008A819B81009739F08A819B819093270147
:101050008093260102C082E0898389810F900F90DE
:101060000F90CF91DF9108951F920F920FB60F92BC
:1010700011242F933F934F935F936F937F938F939D
:101080009F93AF93BF93EF93FF93DF93CF93CDB72E
:10109000DEB78091260190912701009729F0E09119
:1010A0002601F09127010995CF91DF91FF91EF91F2
:1010B000BF91AF919F918F917F916F915F914F9170
:1010C0003F912F910F900FBE0F901F901895DF93B7
:1010D000CF93CDB7DEB728970FB6F894DEBF0FBE1B
:1010E000CDBF8A836B834C8319828B81883008F053
:1010F000F4C08C81813009F072C08A81282F30E0E1
:1011000038872F838F8198858130910549F12F8110
:101110003885223031052CF48F819885009761F055
:101120005BC02F8138852230310571F18F81988520
:1011300083309105E9F150C0AAE3B0E0EAE3F0E0C2
:101140008081482F8B81282F30E081E090E0022EB3
:1011500002C0880F991F0A94E2F7842B8C93BFC0BA
:10116000A7E3B0E0E7E3F0E08081482F8B81282FF0
:1011700030E081E090E0022E02C0880F991F0A94AF
:10118000E2F7842B8C93ABC0A4E3B0E0E4E3F0E09F
:101190008081482F8B81282F30E081E090E0022E63
:1011A00002C0880F991F0A94E2F7842B8C9397C092
:1011B000A1E3B0E0E1E3F0E08081482F8B81282FAC
:1011C00030E081E090E0022E02C0880F991F0A945F
:1011D000E2F7842B8C9383C081E0898380C08C816B
:1011E000882309F077C08A81282F30E03E832D8341
:1011F0008D819E818130910559F12D813E81223072
:1012000031052CF48D819E81009769F060C02D819D
:101210003E812230310589F18D819E818330910597
:1012200009F440C054C0AAE3B0E0EAE3F0E08081F2
:10123000482F8B81282F30E081E090E0022E02C001
:10124000880F991F0A94E2F7809584238C9347C0F6
:10125000A7E3B0E0E7E3F0E08081482F8B81282FFF
:1012600030E081E090E0022E02C0880F991F0A94BE
:10127000E2F7809584238C9332C0A4E3B0E0E4E3EA
:10128000F0E08081482F8B81282F30E081E090E0D2
:10129000022E02C0880F991F0A94E2F780958423DA
:1012A0008C931DC0A1E3B0E0E1E3F0E08081482F22
:1012B0008B81282F30E081E090E0022E02C0880F61
:1012C000991F0A94E2F7809584238C9308C081E0EB
:1012D000898305C081E0898302C081E08983898197
:1012E00028960FB6F894DEBF0FBECDBFCF91DF9129
:1012F0000895DF93CF9300D000D00F92CDB7DEB723
:101300008A836B8319828A81282F30E03D832C8366
:101310008C819D8181309105D1F02C813D812230DD
:1013200031052CF48C819D81009761F01FC02C81C8
:101330003D812230310581F08C819D818330910582
:1013400081F014C0EAE3F0E08B81808311C0E7E311
:10135000F0E08B8180830CC0E4E3F0E08B8180833C
:1013600007C0E1E3F0E08B81808302C081E08983E4
:1013700089810F900F900F900F900F90CF91DF9178
:101380000895DF93CF93CDB7DEB728970FB6F894C3
:10139000DEBF0FBECDBF8A836B834C8319828B81E6
:1013A000883008F0F4C08C81813009F072C08A81E5
:1013B000282F30E038872F838F81988581309105E1
:1013C00049F12F813885223031052CF48F819885A1
:1013D000009761F05BC02F8138852230310571F1B3
:1013E0008F81988583309105E9F150C0ABE3B0E07F
:1013F000EBE3F0E08081482F8B81282F30E081E003
:1014000090E0022E02C0880F991F0A94E2F7842B05
:101410008C93BFC0A8E3B0E0E8E3F0E08081482F00
:101420008B81282F30E081E090E0022E02C0880FEF
:10143000991F0A94E2F7842B8C93ABC0A5E3B0E02C
:10144000E5E3F0E08081482F8B81282F30E081E0B8
:1014500090E0022E02C0880F991F0A94E2F7842BB5
:101460008C9397C0A2E3B0E0E2E3F0E08081482FE4
:101470008B81282F30E081E090E0022E02C0880F9F
:10148000991F0A94E2F7842B8C9383C081E08983AF
:1014900080C08C81882309F077C08A81282F30E0B2
:1014A0003E832D838D819E818130910559F12D815F
:1014B0003E81223031052CF48D819E81009769F0A8
:1014C00060C02D813E812230310589F18D819E8160
:1014D0008330910509F440C054C0ABE3B0E0EBE3C6
:1014E000F0E08081482F8B81282F30E081E090E070
:1014F000022E02C0880F991F0A94E2F78095842378
:101500008C9347C0A8E3B0E0E8E3F0E08081482F87
:101510008B81282F30E081E090E0022E02C0880FFE
:10152000991F0A94E2F7809584238C9332C0A5E337
:10153000B0E0E5E3F0E08081482F8B81282F30E098
:1015400081E090E0022E02C0880F991F0A94E2F712
:10155000809584238C931DC0A2E3B0E0E2E3F0E029
:101560008081482F8B81282F30E081E090E0022E8F
:1015700002C0880F991F0A94E2F7809584238C9308
:1015800008C081E0898305C081E0898302C081E0D1
:101590008983898128960FB6F894DEBF0FBECDBF30
:1015A000CF91DF910895DF93CF9300D000D00F92B9
:1015B000CDB7DEB78A836B8319828A81282F30E00A
:1015C0003D832C838C819D8181309105D1F02C81CC
:1015D0003D81223031052CF48C819D81009761F092
:1015E0001FC02C813D812230310581F08C819D818D
:1015F0008330910581F014C0EBE3F0E08B818083B0
:1016000011C0E8E3F0E08B8180830CC0E5E3F0E0FB
:101610008B81808307C0E2E3F0E08B81808302C08E
:1016200081E0898389810F900F900F900F900F9028
:10163000CF91DF910895DF93CF93CDB7DEB7279792
:101640000FB6F894DEBF0FBECDBF8A836B835D8378
:101650004C8319828C819D81009709F478C08B811D
:10166000883008F074C08A81282F30E03F832E83B1
:101670004E815F814130510559F18E819F818230C9
:10168000910534F42E813F812115310569F05CC04C
:101690004E815F814230510579F18E819F81833087
:1016A000910509F43DC050C0E9E3F0E08081282FA6
:1016B00030E08B81882F90E0A90102C055954795B5
:1016C0008A95E2F7CA018170EC81FD81808341C077
:1016D000E6E3F0E08081282F30E08B81882F90E0D6
:1016E000A90102C0559547958A95E2F7CA01817014
:1016F000EC81FD8180832DC0E3E3F0E08081282F21
:1017000030E08B81882F90E0A90102C05595479564
:101710008A95E2F7CA018170EC81FD81808319C04E
:10172000E0E3F0E08081282F30E08B81882F90E08B
:10173000A90102C0559547958A95E2F7CA018170C3
:10174000EC81FD81808305C081E0898302C081E056
:101750008983898127960FB6F894DEBF0FBECDBF6F
:10176000CF91DF910895DF93CF93CDB7DEB7A7E296
:10177000B0E0E7E2F0E080818F778C93A7E2B0E001
:10178000E7E2F0E0808180648C93A7E2B0E0E7E2DA
:10179000F0E0808180628C93A6E2B0E0E6E2F0E0C7
:1017A0008081887F8C93A6E2B0E0E6E2F0E0808161
:1017B00087608C93A6E2B0E0E6E2F0E0808180688A
:1017C0008C93CF91DF910895DF93CF9300D00F9248
:1017D000CDB7DEB7898380912C01813019F41B824B
:1017E0001A8236C081E080932C01A7E2B0E0E7E2E4
:1017F000F0E08081807E8C93A7E2B0E0E7E2F0E049
:101800008081982F89818F71892B8C93A6E2B0E01B
:10181000E6E2F0E0808180648C93E6E2F0E0808193
:1018200082958F70882F90E0817090700097A9F357
:10183000A6E2B0E0E6E2F0E0808180618C93109255
:101840002C01E5E2F0E08081282F30E03B832A8301
:101850008A819B810F900F900F90CF91DF91089517
:10186000DF93CF9300D000D00F92CDB7DEB789833E
:101870007B836A8380912C01813029F481E090E0A0
:101880009D838C832AC081E080932C01A7E2B0E085
:10189000E7E2F0E08081807E8C93A7E2B0E0E7E2AF
:1018A000F0E08081982F89818F71892B8C938A81B8
:1018B0009B819093290180932801A6E2B0E0E6E2A3
:1018C000F0E0808188608C93A6E2B0E0E6E2F0E090
:1018D000808180648C931D821C828C819D810F90FD
:1018E0000F900F900F900F90CF91DF9108951F925E
:1018F0000F920FB60F9211242F933F934F935F9344
:101900006F937F938F939F93AF93BF93EF93FF93C7
:10191000DF93CF93CDB7DEB7809128019091290155
:101920000097B9F0E5E2F0E08081882F90E0909395
:101930002B0180932A01E0912801F091290109955A
:1019400010922C01A6E2B0E0E6E2F0E08081877F11
:101950008C93CF91DF91FF91EF91BF91AF919F91C8
:101960008F917F916F915F914F913F912F910F9048
:101970000FBE0F901F901895DF93CF9300D000D02B
:101980000F92CDB7DEB78D838D810E94E40B9C83CF
:101990008B838B819C81CC01A0E0B0E028E833E10F
:1019A00040E050E0BC01CD010E94B617DC01CB0144
:1019B000892F9A2FAB2FBB279A83898389819A819C
:1019C0000F900F900F900F900F90CF91DF9108958F
:1019D000DF93CF9300D0CDB7DEB780912A019091ED
:1019E0002B01CC01A0E0B0E028E833E140E050E07A
:1019F000BC01CD010E94B617DC01CB01892F9A2FC3
:101A0000AB2FBB279A83898389819A810F900F908E
:101A1000CF91DF910895DF93CF9300D00F92CDB790
:101A2000DEB78A836B8319828B81883058F48A8170
:101A30006B8141E00E9467088A816B8140E00E94CF
:101A4000C10902C081E0898389810F900F900F90B6
:101A5000CF91DF910895DF93CF9300D00F92CDB750
:101A6000DEB78A836B8319828B81883030F48A8158
:101A70006B8141E00E94C10902C081E089838981B4
:101A80000F900F900F90CF91DF910895DF93CF9338
:101A900000D000D00F92CDB7DEB78A836B83198256
:101AA0008B818A3008F056C08A816FEF0E947909D5
:101AB0008A81282F30E03D832C838C819D81813069
:101AC000910509F12C813D81223031052CF48C8166
:101AD0009D81009761F03BC02C813D812230310512
:101AE000F1F08C819D818330910529F130C08B818B
:101AF000882F90E0FC01E150FF4F908180E0692F3A
:101B00000E94D30A29C08B81882F90E0FC01E1500C
:101B1000FF4F908181E0692F0E94D30A1DC08B8105
:101B2000882F90E0FC01E150FF4F908182E0692F07
:101B30000E94D30A11C08B81882F90E0FC01E150F4
:101B4000FF4F908183E0692F0E94D30A05C081E096
:101B5000898302C081E0898389810F900F900F9063
:101B60000F900F90CF91DF910895EF920F93DF9335
:101B7000CF93CDB7DEB7A3970FB6F894DEBF0FBEF5
:101B8000CDBF8E8F6F8F48A329A30AA3EBA21D8E12
:101B90009091080188A1981708F403C19091080159
:101BA0008AA1981708F4FDC08F8D6BA10E942B0DA0
:101BB0008F8D69A10E940B0D8E8D68A10E94460D2C
:101BC00080E090E0A8ECB2E4898F9A8FAB8FBC8F55
:101BD000698D7A8D8B8D9C8D20E030E04AEF54E446
:101BE0000E941F02DC01CB018D8B9E8BAF8BB88FC7
:101BF0006D897E898F89988D20E030E040E85FE331
:101C00000E94790388232CF481E090E09C8B8B8BDD
:101C10003FC06D897E898F89988D20E03FEF4FE727
:101C200057E40E94190318164CF5698D7A8D8B8D37
:101C30009C8D20E030E040E251E40E941F02DC0174
:101C4000CB01BC01CD010E944900DC01CB019C8B82
:101C50008B8B0FC088EC90E09A8B898B89899A894D
:101C60000197F1F79A8B898B8B899C8901979C8BC3
:101C70008B8B8B899C89009769F714C06D897E894D
:101C80008F89988D0E944900DC01CB019C8B8B8B46
:101C90008B899C89988B8F878F8598890197F1F71D
:101CA000988B8F878F8D69A10E942B0D8F8D6BA1D3
:101CB0000E940B0D8E8D6AA10E94460D80E090E07F
:101CC000A0E2B1E48B879C87AD87BE876B857C855E
:101CD0008D859E8520E030E04AEF54E40E941F028B
:101CE000DC01CB018F839887A987BA876F817885BC
:101CF00089859A8520E030E040E85FE30E9479031F
:101D000088232CF481E090E09E838D833FC06F8117
:101D1000788589859A8520E03FEF4FE757E40E9458
:101D2000190318164CF56B857C858D859E8520E002
:101D300030E040E251E40E941F02DC01CB01BC0113
:101D4000CD010E944900DC01CB019E838D830FC031
:101D500088EC90E09C838B838B819C810197F1F7C9
:101D60009C838B838D819E8101979E838D838D8142
:101D70009E81009769F717C06F81788589859A855C
:101D80000E944900DC01CB019E838D838D819E8161
:101D90009A83898389819A810197F1F79A8389834C
:101DA00002C081E08D8F8D8DA3960FB6F894DEBFB3
:101DB0000FBECDBFCF91DF910F91EF900895DF93CC
:101DC000CF93CDB7DEB7E8970FB6F894DEBF0FBE5E
:101DD000CDBF82E06FEF0E94790983E060E041E0CF
:101DE0000E94670883E061E041E00E94670883E0A9
:101DF00062E041E00E94670880E090E0A0E2B2E487
:101E00008DAB9EABAFABB8AF6DA97EA98FA998ADD6
:101E100020E030E04AEF54E40E941F02DC01CB01D5
:101E200089AB9AABABABBCAB69A97AA98BA99CA9CE
:101E300020E030E040E85FE30E94790388232CF43F
:101E400081E090E098AB8FA73FC069A97AA98BA9E0
:101E50009CA920E03FEF4FE757E40E9419031816B2
:101E60004CF56DA97EA98FA998AD20E030E040E245
:101E700051E40E941F02DC01CB01BC01CD010E9494
:101E80004900DC01CB0198AB8FA70FC088EC90E034
:101E90009EA78DA78DA59EA50197F1F79EA78DA75B
:101EA0008FA598A9019798AB8FA78FA598A90097A0
:101EB00069F714C069A97AA98BA99CA90E94490055
:101EC000DC01CB0198AB8FA78FA598A99CA78BA706
:101ED0008BA59CA50197F1F79CA78BA788E30E948F
:101EE000E91180E090E0A0E8BFE38FA398A7A9A73D
:101EF000BAA76FA178A589A59AA520E030E04AEF9E
:101F000054E40E941F02DC01CB018BA39CA3ADA370
:101F1000BEA36BA17CA18DA19EA120E030E040E892
:101F20005FE30E94790388232CF481E090E09AA378
:101F300089A33FC06BA17CA18DA19EA120E03FEFB2
:101F40004FE757E40E94190318164CF56FA178A5C6
:101F500089A59AA520E030E040E251E40E941F02EA
:101F6000DC01CB01BC01CD010E944900DC01CB01A9
:101F70009AA389A30FC088EC90E098A38F8F8F8DD0
:101F800098A10197F1F798A38F8F89A19AA1019742
:101F90009AA389A389A19AA1009769F714C06BA19C
:101FA0007CA18DA19EA10E944900DC01CB019AA3D6
:101FB00089A389A19AA19E8F8D8F8D8D9E8D01976A
:101FC000F1F79E8F8D8F8FE00E94E91180E090E005
:101FD000A0E8BFE3898F9A8FAB8FBC8F698D7A8D14
:101FE0008B8D9C8D20E030E04AEF54E40E941F026C
:101FF000DC01CB018D8B9E8BAF8BB88F6D897E8979
:102000008F89988D20E030E040E85FE30E947903FB
:1020100088232CF481E090E09C8B8B8B3FC06D89F2
:102020007E898F89988D20E03FEF4FE757E40E942B
:10203000190318164CF5698D7A8D8B8D9C8D20E0D7
:1020400030E040E251E40E941F02DC01CB01BC0100
:10205000CD010E944900DC01CB019C8B8B8B0FC012
:1020600088EC90E09A8B898B89899A890197F1F79E
:102070009A8B898B8B899C8901979C8B8B8B8B8905
:102080009C89009769F714C06D897E898F89988D26
:102090000E944900DC01CB019C8B8B8B8B899C8936
:1020A000988B8F878F8598890197F1F7988B8F8709
:1020B00081E00E94E91180E090E0A0E0B0E48B872D
:1020C0009C87AD87BE876B857C858D859E8520E04E
:1020D00030E04AEF54E40E941F02DC01CB018F8301
:1020E0009887A987BA876F81788589859A8520E046
:1020F00030E040E85FE30E94790388232CF481E01C
:1021000090E09E838D833FC06F81788589859A8515
:1021100020E03FEF4FE757E40E94190318164CF5F3
:102120006B857C858D859E8520E030E040E251E422
:102130000E941F02DC01CB01BC01CD010E944900BD
:10214000DC01CB019E838D830FC088EC90E09C83E3
:102150008B838B819C810197F1F79C838B838D818D
:102160009E8101979E838D838D819E81009769F763
:1021700014C06F81788589859A850E944900DC01A9
:10218000CB019E838D838D819E819A8389838981F2
:102190009A810197F1F79A83898382E00E94E9117D
:1021A000E8960FB6F894DEBF0FBECDBFCF91DF919A
:1021B0000895DF93CF93CDB7DEB76D970FB6F89440
:1021C000DEBF0FBECDBF8D8F83E060E041E00E9497
:1021D000C10983E061E040E00E94C10982E06D8DA9
:1021E0000E94D30A83E062E041E00E94C10980E0DE
:1021F00090E0A0E0B0E4898F9A8FAB8FBC8F698D9F
:102200007A8D8B8D9C8D20E030E04AEF54E40E9463
:102210001F02DC01CB018D8B9E8BAF8BB88F6D893C
:102220007E898F89988D20E030E040E85FE30E944E
:10223000790388232CF481E090E09C8B8B8B3FC04A
:102240006D897E898F89988D20E03FEF4FE757E4B5
:102250000E94190318164CF5698D7A8D8B8D9C8D13
:1022600020E030E040E251E40E941F02DC01CB019B
:10227000BC01CD010E944900DC01CB019C8B8B8B02
:102280000FC088EC90E09A8B898B89899A89019795
:10229000F1F79A8B898B8B899C8901979C8B8B8B0F
:1022A0008B899C89009769F714C06D897E898F8915
:1022B000988D0E944900DC01CB019C8B8B8B8B8914
:1022C0009C89988B8F878F8598890197F1F7988BD8
:1022D0008F8783E062E040E00E94C10980E090E0E7
:1022E000A0E0B0E48B879C87AD87BE876B857C853B
:1022F0008D859E8520E030E04AEF54E40E941F0265
:10230000DC01CB018F839887A987BA876F81788595
:1023100089859A8520E030E040E85FE30E947903F8
:1023200088232CF481E090E09E838D833FC06F81F1
:10233000788589859A8520E03FEF4FE757E40E9432
:10234000190318164CF56B857C858D859E8520E0DC
:1023500030E040E251E40E941F02DC01CB01BC01ED
:10236000CD010E944900DC01CB019E838D830FC00B
:1023700088EC90E09C838B838B819C810197F1F7A3
:102380009C838B838D819E8101979E838D838D811C
:102390009E81009769F714C06F81788589859A8539
:1023A0000E944900DC01CB019E838D838D819E813B
:1023B0009A83898389819A810197F1F79A83898326
:1023C0006D960FB6F894DEBF0FBECDBFCF91DF91F3
:1023D0000895DF93CF93CDB7DEB76D970FB6F8941E
:1023E000DEBF0FBECDBF8D8F83E060E040E00E9476
:1023F000C10983E061E040E00E94C10982E06D8D87
:102400000E94D30A83E062E041E00E94C10980E0BB
:1024100090E0A0E0B0E4898F9A8FAB8FBC8F698D7C
:102420007A8D8B8D9C8D20E030E04AEF54E40E9441
:102430001F02DC01CB018D8B9E8BAF8BB88F6D891A
:102440007E898F89988D20E030E040E85FE30E942C
:10245000790388232CF481E090E09C8B8B8B3FC028
:102460006D897E898F89988D20E03FEF4FE757E493
:102470000E94190318164CF5698D7A8D8B8D9C8DF1
:1024800020E030E040E251E40E941F02DC01CB0179
:10249000BC01CD010E944900DC01CB019C8B8B8BE0
:1024A0000FC088EC90E09A8B898B89899A89019773
:1024B000F1F79A8B898B8B899C8901979C8B8B8BED
:1024C0008B899C89009769F714C06D897E898F89F3
:1024D000988D0E944900DC01CB019C8B8B8B8B89F2
:1024E0009C89988B8F878F8598890197F1F7988BB6
:1024F0008F8783E062E040E00E94C10980E090E0C5
:10250000A0E0B0E48B879C87AD87BE876B857C8518
:102510008D859E8520E030E04AEF54E40E941F0242
:10252000DC01CB018F839887A987BA876F81788573
:1025300089859A8520E030E040E85FE30E947903D6
:1025400088232CF481E090E09E838D833FC06F81CF
:10255000788589859A8520E03FEF4FE757E40E9410
:10256000190318164CF56B857C858D859E8520E0BA
:1025700030E040E251E40E941F02DC01CB01BC01CB
:10258000CD010E944900DC01CB019E838D830FC0E9
:1025900088EC90E09C838B838B819C810197F1F781
:1025A0009C838B838D819E8101979E838D838D81FA
:1025B0009E81009769F714C06F81788589859A8517
:1025C0000E944900DC01CB019E838D838D819E8119
:1025D0009A83898389819A810197F1F79A83898304
:1025E0006D960FB6F894DEBF0FBECDBFCF91DF91D1
:1025F0000895DF93CF9300D00F92CDB7DEB79B83C2
:102600008A8319820EC08981282F30E08A819B81BC
:10261000FC01E20FF31F80810E94D91089818F5F36
:1026200089838981282F30E08A819B81FC01E20F18
:10263000F31F8081882339F70F900F900F90CF916F
:10264000DF910895DF93CF9300D000D0CDB7DEB7F0
:102650009C838B8381E090E09A8389838B819C812A
:10266000009739F58B81805D0E94D91022C0898145
:102670009A819C01220F331FC901880F991F880F6F
:10268000991FF901E80FF91F8B819C812AE030E046
:10269000B9010E94D5178E0F9F1F9A8389838B8162
:1026A0009C812AE030E0B9010E94D517CB019C83C0
:1026B0008B838B819C810097D1F617C089819A8189
:1026C0002AE030E0B9010E94D5179C838B83898171
:1026D0009A812AE030E0B9010E94D517CB019A8394
:1026E00089838B81805D0E94D91089819A81823093
:1026F000910520F70F900F900F900F90CF91DF91E1
:102700000895DF93CF9300D0CDB7DEB789836A8376
:102710008981882329F48A8180580E94E91107C0A1
:102720008981813021F48A8180540E94E9110F90BF
:102730000F90CF91DF910895DF93CF9300D000D019
:1027400000D0CDB7DEB79B838A836C834D832E8305
:1027500019828C81882F90E00896880F991F880F26
:10276000991F880F991F0E94E91119820EC0898153
:10277000282F30E08A819B81FC01E20FF31F8081CA
:102780000E94D91089818F5F89838981883078F38D
:1027900080E80E94E9118D816E810E9481138C81F5
:1027A0000E94D91026960FB6F894DEBF0FBECDBF9B
:1027B000CF91DF910895DF93CF9300D000D00F9297
:1027C000CDB7DEB78FEF8B8381E060E041E00E9400
:1027D000670881E061E041E00E94670881E062E013
:1027E00041E00E94670881E063E041E00E946708E1
:1027F00081E060E041E00E94C10981E061E041E0E8
:102800000E94C10981E062E041E00E94C10981E0CB
:1028100063E041E00E94C10981E064E040E00E9481
:10282000670881E065E040E00E94670881E066E0BB
:1028300040E00E94670881E067E040E00E9467088E
:1028400081E064E041E00E94C10981E065E041E08F
:102850000E94C10981E066E041E00E94C10981E077
:1028600067E041E00E94C1091A825EC08A81882F18
:1028700090E0FC01E35FFE4F908181E0692F40E032
:102880000E94C10919823DC08981882F90E0FC0116
:10289000E75FFE4F90819E012C5F3F4F81E0692FE3
:1028A000A9010E941B0B8C81882341F58981482F47
:1028B00050E08A81282F30E0CA01880F991F880FC5
:1028C000991F820F931FFC01EF5EFE4F80818B8367
:1028D0000FC08981882F90E0FC01E75FFE4F908157
:1028E0009E012C5F3F4F81E0692FA9010E941B0BC5
:1028F0008C81882371F38B818D831CC089818F5FCC
:1029000089838981843008F4BFCF8A81882F90E041
:10291000FC01E35FFE4F908181E0692F41E00E945E
:10292000C1098A818F5F8A838A81843008F49ECFAF
:102930008B818D838D810F900F900F900F900F9052
:10294000CF91DF910895DF93CF93CDB7DEB7EE97A8
:102950000FB6F894DEBF0FBECDBF1EAE1DAE1CAECF
:102960001BAE1AAE19AE0E94B30B0E94A3050E94C3
:10297000DF0E80E060E040E00E94670880E060E0F9
:1029800040E00E94C10983E065E041E00E946708E1
:1029900083E066E041E00E94670880E690E00E94E4
:1029A000F91280E090E0AAE7B4E48DAB9EABAFAB48
:1029B000B8AF6DA97EA98FA998AD20E030E04AEFAD
:1029C00054E40E941F02DC01CB0189AB9AABABAB94
:1029D000BCAB69A97AA98BA99CA920E030E040E8AA
:1029E0005FE30E94790388232CF481E090E098ABA8
:1029F0008FA73FC069A97AA98BA99CA920E03FEFC6
:102A00004FE757E40E94190318164CF56DA97EA9EB
:102A10008FA998AD20E030E040E251E40E941F020F
:102A2000DC01CB01BC01CD010E944900DC01CB01DE
:102A300098AB8FA70FC088EC90E09EA78DA78DA5BF
:102A40009EA50197F1F79EA78DA78FA598A901973D
:102A500098AB8FA78FA598A9009769F714C069A9AB
:102A60007AA98BA99CA90E944900DC01CB0198ABF3
:102A70008FA78FA598A99CA78BA78BA59CA501972D
:102A8000F1F79CA78BA781E00E94E9118DE690E009
:102A90000E94F91280E090E0AAE7B4E48FA398A71F
:102AA000A9A7BAA76FA178A589A59AA520E030E0CB
:102AB0004AEF54E40E941F02DC01CB018BA39CA3CC
:102AC000ADA3BEA36BA17CA18DA19EA120E030E0AF
:102AD00040E85FE30E94790388232CF481E090E0D2
:102AE0009AA389A33FC06BA17CA18DA19EA120E0E8
:102AF0003FEF4FE757E40E94190318164CF56FA1FA
:102B000078A589A59AA520E030E040E251E40E9432
:102B10001F02DC01CB01BC01CD010E944900DC0198
:102B2000CB019AA389A30FC088EC90E098A38F8F64
:102B30008F8D98A10197F1F798A38F8F89A19AA102
:102B400001979AA389A389A19AA1009769F714C054
:102B50006BA17CA18DA19EA10E944900DC01CB014B
:102B60009AA389A389A19AA19E8F8D8F8D8D9E8D09
:102B70000197F1F79E8F8D8F81E00E94E9111FC0B0
:102B80008DAD882F90E09C01220F331FC901880F63
:102B9000991F880F991F820F931F982F8EAD890F51
:102BA0008DAF8CAD882319F08AE20E94D9100E9463
:102BB000DB138EAF81E08CAF8EAD8F3FC1F38EAD56
:102BC0008D33F1F68DAD8B3709F076C019AE29E95A
:102BD00037E180E0B9010E94300C80912D018D32E7
:102BE000F8F08BAD8130E1F081E08BAF81E00E94A5
:102BF000E9118CE790E00E94F91281E060E00E9408
:102C000081138BE890E00E94F91283E066E041E0D6
:102C10000E94C10983E065E041E00E94C109D2CF72
:102C200080912D01883218F580912D018432F8F0C1
:102C30008BAD8230E1F082E08BAF81E00E94E91140
:102C40008AE990E00E94F91281E060E00E9481131D
:102C50008AEA90E00E94F91283E066E040E00E9478
:102C6000C10983E065E041E00E94C109ABCF8091DA
:102C70002D01833208F0A6CF8BAD833009F4A2CFAB
:102C800083E08BAF81E00E94E9118AEB90E00E9423
:102C9000F91281E060E00E9481138AEA90E00E94CC
:102CA000F91283E066E040E00E94C10983E065E03C
:102CB00040E00E94C10986CF8DAD8B3709F423C156
:102CC0008AAD823008F01FC181E00E94E9118AECD0
:102CD00090E00E94F91280E090E0AAEFB3E4898FBF
:102CE0009A8FAB8FBC8F698D7A8D8B8D9C8D20E0F8
:102CF00030E04AEF54E40E941F02DC01CB018D8BCF
:102D00009E8BAF8BB88F6D897E898F89988D20E0DF
:102D100030E040E85FE30E94790388232CF481E0EF
:102D200090E09C8B8B8B3FC06D897E898F89988DBD
:102D300020E03FEF4FE757E40E94190318164CF5C7
:102D4000698D7A8D8B8D9C8D20E030E040E251E4DE
:102D50000E941F02DC01CB01BC01CD010E94490091
:102D6000DC01CB019C8B8B8B0FC088EC90E09A8BA5
:102D7000898B89899A890197F1F79A8B898B8B893D
:102D80009C8901979C8B8B8B8B899C89009769F719
:102D900014C06D897E898F89988D0E944900DC015D
:102DA000CB019C8B8B8B8B899C89988B8F878F8594
:102DB00098890197F1F7988B8F8781E00E94E9113C
:102DC00089ED90E00E94F91280E090E0AAEFB3E470
:102DD0008B879C87AD87BE876B857C858D859E851F
:102DE00020E030E04AEF54E40E941F02DC01CB01F6
:102DF0008F839887A987BA876F81788589859A8517
:102E000020E030E040E85FE30E94790388232CF45F
:102E100081E090E09E838D833FC06F8178858985B6
:102E20009A8520E03FEF4FE757E40E9419031816F8
:102E30004CF56B857C858D859E8520E030E040E2F9
:102E400051E40E941F02DC01CB01BC01CD010E94B4
:102E50004900DC01CB019E838D830FC088EC90E09C
:102E60009C838B838B819C810197F1F79C838B835F
:102E70008D819E8101979E838D838D819E81009798
:102E800069F714C06F81788589859A850E94490009
:102E9000DC01CB019E838D838D819E819A83898302
:102EA00089819A810197F1F79A83898381E00E9451
:102EB000E9111DAE1EAE1CAE1FC08DAD882F90E077
:102EC0009C01220F331FC901880F991F880F991F7A
:102ED000820F931F982F8EAD890F8DAF8CAD8823F5
:102EE00019F08AE20E94D9100E94DB138EAF81E0B4
:102EF0008CAF8EAD8F3FC1F38EAD8D33F1F68AADC1
:102F00008F5F8AAF5FCE89AD882309F05BCE81E009
:102F10000E94E91183EE90E00E94F91281E060E0E6
:102F20000E9481138BEE90E00E94F91281E089AF3C
:102F300049CEDF93CF93CDB7DEB780E060E00E944B
:102F400081130E94E80C90932F0180932E018091B1
:102F50002E0190912F012AE030E0B9010E94D5178F
:102F6000CB0180932D01CF91DF910895629FD00115
:102F7000739FF001829FE00DF11D649FE00DF11D34
:102F8000929FF00D839FF00D749FF00D659FF00DE3
:102F90009927729FB00DE11DF91F639FB00DE11DD0
:102FA000F91FBD01CF0111240895AA1BBB1B51E1DC
:102FB00007C0AA1FBB1FA617B70710F0A61BB70BA9
:102FC000881F991F5A95A9F780959095BC01CD014E
:102FD00008952F923F924F925F926F927F928F92BD
:102FE0009F92AF92BF92CF92DF92EF92FF920F9398
:102FF0001F93CF93DF93CDB7DEB7CA1BDB0B0FB6A2
:10300000F894DEBF0FBECDBF09942A88398848885E
:103010005F846E847D848C849B84AA84B984C884F4
:10302000DF80EE80FD800C811B81AA81B981CE0FEB
:10303000D11D0FB6F894DEBF0FBECDBFED010895D0
:04304000F894FFCF32
:1030440057656C636F6D65204261636B00456E74F8
:1030540065722050617373776F7264007765617471
:1030640068657220697320686F740046616E206918
:1030740073207475726E206F6E0077656174686575
:1030840072206973207761726D0046616E206973E6
:10309400207475726E206F6666007765617468656A
:1030A4007220697320636F6F6C0057726F6E6720B4
:1030B40070617373776F7264005472792061676111
:1030C400696E00657863656564200076616C696487
:1030D4002074726965730000000000000000003F66
:1030E400065B4F666D7D077F6F04050607000102CE
:1030F400030708092F0405062A0102032D24003DB5
:023104002B009E
:00000001FF
